{
  "contractName": "Bank",
  "abi": [
    {
      "inputs": [
        {
          "internalType": "contract Token",
          "name": "_token",
          "type": "address"
        }
      ],
      "stateMutability": "nonpayable",
      "type": "constructor"
    },
    {
      "inputs": [
        {
          "internalType": "address",
          "name": "",
          "type": "address"
        }
      ],
      "name": "clientsBalanceBNB",
      "outputs": [
        {
          "internalType": "uint256",
          "name": "",
          "type": "uint256"
        }
      ],
      "stateMutability": "view",
      "type": "function",
      "constant": true
    },
    {
      "inputs": [
        {
          "internalType": "address",
          "name": "",
          "type": "address"
        }
      ],
      "name": "clientsBalanceBNB2",
      "outputs": [
        {
          "internalType": "uint256",
          "name": "",
          "type": "uint256"
        }
      ],
      "stateMutability": "view",
      "type": "function",
      "constant": true
    },
    {
      "inputs": [
        {
          "internalType": "address",
          "name": "",
          "type": "address"
        }
      ],
      "name": "clientsInterests",
      "outputs": [
        {
          "internalType": "uint256",
          "name": "",
          "type": "uint256"
        }
      ],
      "stateMutability": "view",
      "type": "function",
      "constant": true
    },
    {
      "inputs": [
        {
          "internalType": "address",
          "name": "",
          "type": "address"
        }
      ],
      "name": "clientsInterests2",
      "outputs": [
        {
          "internalType": "uint256",
          "name": "",
          "type": "uint256"
        }
      ],
      "stateMutability": "view",
      "type": "function",
      "constant": true
    },
    {
      "inputs": [
        {
          "internalType": "address",
          "name": "",
          "type": "address"
        }
      ],
      "name": "depositTimeStamp",
      "outputs": [
        {
          "internalType": "uint256",
          "name": "",
          "type": "uint256"
        }
      ],
      "stateMutability": "view",
      "type": "function",
      "constant": true
    },
    {
      "inputs": [
        {
          "internalType": "address",
          "name": "",
          "type": "address"
        }
      ],
      "name": "depositTimeStamp2",
      "outputs": [
        {
          "internalType": "uint256",
          "name": "",
          "type": "uint256"
        }
      ],
      "stateMutability": "view",
      "type": "function",
      "constant": true
    },
    {
      "inputs": [
        {
          "internalType": "address",
          "name": "",
          "type": "address"
        }
      ],
      "name": "isDeposited",
      "outputs": [
        {
          "internalType": "bool",
          "name": "",
          "type": "bool"
        }
      ],
      "stateMutability": "view",
      "type": "function",
      "constant": true
    },
    {
      "inputs": [
        {
          "internalType": "address",
          "name": "",
          "type": "address"
        }
      ],
      "name": "isDeposited2",
      "outputs": [
        {
          "internalType": "bool",
          "name": "",
          "type": "bool"
        }
      ],
      "stateMutability": "view",
      "type": "function",
      "constant": true
    },
    {
      "inputs": [],
      "name": "totalBNBFromTokenSales",
      "outputs": [
        {
          "internalType": "uint256",
          "name": "",
          "type": "uint256"
        }
      ],
      "stateMutability": "view",
      "type": "function",
      "constant": true
    },
    {
      "inputs": [],
      "name": "deposit",
      "outputs": [],
      "stateMutability": "payable",
      "type": "function",
      "payable": true
    },
    {
      "inputs": [],
      "name": "withdraw",
      "outputs": [],
      "stateMutability": "payable",
      "type": "function",
      "payable": true
    },
    {
      "inputs": [
        {
          "internalType": "address",
          "name": "client",
          "type": "address"
        }
      ],
      "name": "getClientBalanceBNB",
      "outputs": [
        {
          "internalType": "uint256",
          "name": "",
          "type": "uint256"
        }
      ],
      "stateMutability": "view",
      "type": "function",
      "constant": true
    },
    {
      "inputs": [
        {
          "internalType": "address",
          "name": "client",
          "type": "address"
        }
      ],
      "name": "getClientInterest",
      "outputs": [
        {
          "internalType": "uint256",
          "name": "",
          "type": "uint256"
        }
      ],
      "stateMutability": "view",
      "type": "function",
      "constant": true
    },
    {
      "inputs": [],
      "name": "secondDeposit",
      "outputs": [],
      "stateMutability": "payable",
      "type": "function",
      "payable": true
    },
    {
      "inputs": [],
      "name": "secondWithdraw",
      "outputs": [],
      "stateMutability": "payable",
      "type": "function",
      "payable": true
    },
    {
      "inputs": [
        {
          "internalType": "address",
          "name": "client",
          "type": "address"
        }
      ],
      "name": "getClientBalanceBNB2",
      "outputs": [
        {
          "internalType": "uint256",
          "name": "",
          "type": "uint256"
        }
      ],
      "stateMutability": "view",
      "type": "function",
      "constant": true
    },
    {
      "inputs": [
        {
          "internalType": "address",
          "name": "client",
          "type": "address"
        }
      ],
      "name": "getClientInterest2",
      "outputs": [
        {
          "internalType": "uint256",
          "name": "",
          "type": "uint256"
        }
      ],
      "stateMutability": "view",
      "type": "function",
      "constant": true
    },
    {
      "inputs": [
        {
          "internalType": "uint256",
          "name": "tokensToBuy",
          "type": "uint256"
        }
      ],
      "name": "buyTokens",
      "outputs": [],
      "stateMutability": "payable",
      "type": "function",
      "payable": true
    },
    {
      "inputs": [],
      "name": "getTotalBNBFromTokenSales",
      "outputs": [
        {
          "internalType": "uint256",
          "name": "",
          "type": "uint256"
        }
      ],
      "stateMutability": "view",
      "type": "function",
      "constant": true
    }
  ],
  "bytecode": "0x608060405260006009553480156200001657600080fd5b50604051620019d2380380620019d283398181016040528101906200003c919062000101565b806000806101000a81548173ffffffffffffffffffffffffffffffffffffffff021916908373ffffffffffffffffffffffffffffffffffffffff1602179055505062000133565b600080fd5b600073ffffffffffffffffffffffffffffffffffffffff82169050919050565b6000620000b58262000088565b9050919050565b6000620000c982620000a8565b9050919050565b620000db81620000bc565b8114620000e757600080fd5b50565b600081519050620000fb81620000d0565b92915050565b6000602082840312156200011a576200011962000083565b5b60006200012a84828501620000ea565b91505092915050565b61188f80620001436000396000f3fe6080604052600436106101135760003560e01c806373732024116100a0578063c3de3ef811610064578063c3de3ef8146103c3578063cf663c57146103cd578063d0e30db01461040a578063dff05f8214610414578063f397812b1461045157610113565b806373732024146102b6578063946881d9146102f35780639968cbe11461031e578063b24daaf514610349578063b8cbad0d1461038657610113565b8063373e2a15116100e7578063373e2a15146101eb5780633ccfd60b146102285780633d363f1514610232578063638cb1a41461023c5780636ca928b41461027957610113565b8062e2cb2614610118578063249ee9e1146101555780632878d101146101925780633610724e146101cf575b600080fd5b34801561012457600080fd5b5061013f600480360381019061013a919061137e565b61048e565b60405161014c91906113c4565b60405180910390f35b34801561016157600080fd5b5061017c6004803603810190610177919061137e565b6104d7565b60405161018991906113c4565b60405180910390f35b34801561019e57600080fd5b506101b960048036038101906101b4919061137e565b6104ef565b6040516101c691906113c4565b60405180910390f35b6101e960048036038101906101e4919061140b565b610538565b005b3480156101f757600080fd5b50610212600480360381019061020d919061137e565b61064e565b60405161021f91906113c4565b60405180910390f35b610230610666565b005b61023a6109b0565b005b34801561024857600080fd5b50610263600480360381019061025e919061137e565b610d89565b60405161027091906113c4565b60405180910390f35b34801561028557600080fd5b506102a0600480360381019061029b919061137e565b610dd2565b6040516102ad91906113c4565b60405180910390f35b3480156102c257600080fd5b506102dd60048036038101906102d8919061137e565b610dea565b6040516102ea9190611453565b60405180910390f35b3480156102ff57600080fd5b50610308610e0a565b60405161031591906113c4565b60405180910390f35b34801561032a57600080fd5b50610333610e14565b60405161034091906113c4565b60405180910390f35b34801561035557600080fd5b50610370600480360381019061036b919061137e565b610e1a565b60405161037d9190611453565b60405180910390f35b34801561039257600080fd5b506103ad60048036038101906103a8919061137e565b610e3a565b6040516103ba91906113c4565b60405180910390f35b6103cb610e83565b005b3480156103d957600080fd5b506103f460048036038101906103ef919061137e565b610fdb565b60405161040191906113c4565b60405180910390f35b610412610ff3565b005b34801561042057600080fd5b5061043b6004803603810190610436919061137e565b61114b565b60405161044891906113c4565b60405180910390f35b34801561045d57600080fd5b506104786004803603810190610473919061137e565b611163565b60405161048591906113c4565b60405180910390f35b6000600560008373ffffffffffffffffffffffffffffffffffffffff1673ffffffffffffffffffffffffffffffffffffffff168152602001908152602001600020549050919050565b60016020528060005260406000206000915090505481565b6000600160008373ffffffffffffffffffffffffffffffffffffffff1673ffffffffffffffffffffffffffffffffffffffff168152602001908152602001600020549050919050565b600066038d7ea4c680008261054d919061149d565b905080341015610592576040517f08c379a000000000000000000000000000000000000000000000000000000000815260040161058990611554565b60405180910390fd5b60008054906101000a900473ffffffffffffffffffffffffffffffffffffffff1673ffffffffffffffffffffffffffffffffffffffff1663a9059cbb33846040518363ffffffff1660e01b81526004016105ed929190611583565b6020604051808303816000875af115801561060c573d6000803e3d6000fd5b505050506040513d601f19601f8201168201806040525081019061063091906115d8565b5034600960008282546106439190611605565b925050819055505050565b60086020528060005260406000206000915090505481565b60011515600360003373ffffffffffffffffffffffffffffffffffffffff1673ffffffffffffffffffffffffffffffffffffffff16815260200190815260200160002060009054906101000a900460ff161515146106f9576040517f08c379a00000000000000000000000000000000000000000000000000000000081526004016106f0906116a7565b60405180910390fd5b66b1a2bc2ec50000341015610743576040517f08c379a000000000000000000000000000000000000000000000000000000000815260040161073a90611739565b60405180910390fd5b600061074e3361117b565b905080600460003373ffffffffffffffffffffffffffffffffffffffff1673ffffffffffffffffffffffffffffffffffffffff168152602001908152602001600020600082825461079f9190611605565b925050819055503373ffffffffffffffffffffffffffffffffffffffff166108fc661c6bf526340000600160003373ffffffffffffffffffffffffffffffffffffffff1673ffffffffffffffffffffffffffffffffffffffff168152602001908152602001600020546108129190611759565b9081150290604051600060405180830381858888f1935050505015801561083d573d6000803e3d6000fd5b506000600160003373ffffffffffffffffffffffffffffffffffffffff1673ffffffffffffffffffffffffffffffffffffffff1681526020019081526020016000208190555060008054906101000a900473ffffffffffffffffffffffffffffffffffffffff1673ffffffffffffffffffffffffffffffffffffffff166340c10f1933836040518363ffffffff1660e01b81526004016108de929190611583565b600060405180830381600087803b1580156108f857600080fd5b505af115801561090c573d6000803e3d6000fd5b505050506000600260003373ffffffffffffffffffffffffffffffffffffffff1673ffffffffffffffffffffffffffffffffffffffff168152602001908152602001600020819055506000600360003373ffffffffffffffffffffffffffffffffffffffff1673ffffffffffffffffffffffffffffffffffffffff16815260200190815260200160002060006101000a81548160ff02191690831515021790555050565b60011515600760003373ffffffffffffffffffffffffffffffffffffffff1673ffffffffffffffffffffffffffffffffffffffff16815260200190815260200160002060009054906101000a900460ff16151514610a43576040517f08c379a0000000000000000000000000000000000000000000000000000000008152600401610a3a906116a7565b60405180910390fd5b66b1a2bc2ec50000341015610a8d576040517f08c379a0000000000000000000000000000000000000000000000000000000008152600401610a8490611739565b60405180910390fd5b610258600660003373ffffffffffffffffffffffffffffffffffffffff1673ffffffffffffffffffffffffffffffffffffffff16815260200190815260200160002054610ada9190611605565b421015610b1c576040517f08c379a0000000000000000000000000000000000000000000000000000000008152600401610b13906117d9565b60405180910390fd5b6000610b2733611245565b905080600860003373ffffffffffffffffffffffffffffffffffffffff1673ffffffffffffffffffffffffffffffffffffffff1681526020019081526020016000206000828254610b789190611605565b925050819055503373ffffffffffffffffffffffffffffffffffffffff166108fc661c6bf526340000600560003373ffffffffffffffffffffffffffffffffffffffff1673ffffffffffffffffffffffffffffffffffffffff16815260200190815260200160002054610beb9190611759565b9081150290604051600060405180830381858888f19350505050158015610c16573d6000803e3d6000fd5b506000600560003373ffffffffffffffffffffffffffffffffffffffff1673ffffffffffffffffffffffffffffffffffffffff1681526020019081526020016000208190555060008054906101000a900473ffffffffffffffffffffffffffffffffffffffff1673ffffffffffffffffffffffffffffffffffffffff166340c10f1933836040518363ffffffff1660e01b8152600401610cb7929190611583565b600060405180830381600087803b158015610cd157600080fd5b505af1158015610ce5573d6000803e3d6000fd5b505050506000600660003373ffffffffffffffffffffffffffffffffffffffff1673ffffffffffffffffffffffffffffffffffffffff168152602001908152602001600020819055506000600760003373ffffffffffffffffffffffffffffffffffffffff1673ffffffffffffffffffffffffffffffffffffffff16815260200190815260200160002060006101000a81548160ff02191690831515021790555050565b6000600460008373ffffffffffffffffffffffffffffffffffffffff1673ffffffffffffffffffffffffffffffffffffffff168152602001908152602001600020549050919050565b60066020528060005260406000206000915090505481565b60036020528060005260406000206000915054906101000a900460ff1681565b6000600954905090565b60095481565b60076020528060005260406000206000915054906101000a900460ff1681565b6000600860008373ffffffffffffffffffffffffffffffffffffffff1673ffffffffffffffffffffffffffffffffffffffff168152602001908152602001600020549050919050565b6000610e8e33611245565b905080600860003373ffffffffffffffffffffffffffffffffffffffff1673ffffffffffffffffffffffffffffffffffffffff1681526020019081526020016000206000828254610edf9190611605565b9250508190555034600560003373ffffffffffffffffffffffffffffffffffffffff1673ffffffffffffffffffffffffffffffffffffffff1681526020019081526020016000206000828254610f359190611605565b9250508190555042600660003373ffffffffffffffffffffffffffffffffffffffff1673ffffffffffffffffffffffffffffffffffffffff168152602001908152602001600020819055506001600760003373ffffffffffffffffffffffffffffffffffffffff1673ffffffffffffffffffffffffffffffffffffffff16815260200190815260200160002060006101000a81548160ff02191690831515021790555050565b60056020528060005260406000206000915090505481565b6000610ffe3361117b565b905080600460003373ffffffffffffffffffffffffffffffffffffffff1673ffffffffffffffffffffffffffffffffffffffff168152602001908152602001600020600082825461104f9190611605565b9250508190555034600160003373ffffffffffffffffffffffffffffffffffffffff1673ffffffffffffffffffffffffffffffffffffffff16815260200190815260200160002060008282546110a59190611605565b9250508190555042600260003373ffffffffffffffffffffffffffffffffffffffff1673ffffffffffffffffffffffffffffffffffffffff168152602001908152602001600020819055506001600360003373ffffffffffffffffffffffffffffffffffffffff1673ffffffffffffffffffffffffffffffffffffffff16815260200190815260200160002060006101000a81548160ff02191690831515021790555050565b60026020528060005260406000206000915090505481565b60046020528060005260406000206000915090505481565b600080600260008473ffffffffffffffffffffffffffffffffffffffff1673ffffffffffffffffffffffffffffffffffffffff16815260200190815260200160002054426111c99190611759565b905060006301e33731600160008673ffffffffffffffffffffffffffffffffffffffff1673ffffffffffffffffffffffffffffffffffffffff16815260200190815260200160002054606461121e919061149d565b6112289190611828565b905060008282611238919061149d565b9050809350505050919050565b600080600660008473ffffffffffffffffffffffffffffffffffffffff1673ffffffffffffffffffffffffffffffffffffffff16815260200190815260200160002054426112939190611759565b905060006301e33731600560008673ffffffffffffffffffffffffffffffffffffffff1673ffffffffffffffffffffffffffffffffffffffff1681526020019081526020016000205460646112e8919061149d565b6112f29190611828565b9050600082826002611304919061149d565b61130e919061149d565b9050809350505050919050565b600080fd5b600073ffffffffffffffffffffffffffffffffffffffff82169050919050565b600061134b82611320565b9050919050565b61135b81611340565b811461136657600080fd5b50565b60008135905061137881611352565b92915050565b6000602082840312156113945761139361131b565b5b60006113a284828501611369565b91505092915050565b6000819050919050565b6113be816113ab565b82525050565b60006020820190506113d960008301846113b5565b92915050565b6113e8816113ab565b81146113f357600080fd5b50565b600081359050611405816113df565b92915050565b6000602082840312156114215761142061131b565b5b600061142f848285016113f6565b91505092915050565b60008115159050919050565b61144d81611438565b82525050565b60006020820190506114686000830184611444565b92915050565b7f4e487b7100000000000000000000000000000000000000000000000000000000600052601160045260246000fd5b60006114a8826113ab565b91506114b3836113ab565b9250817fffffffffffffffffffffffffffffffffffffffffffffffffffffffffffffffff04831182151516156114ec576114eb61146e565b5b828202905092915050565b600082825260208201905092915050565b7f4572726f722c20696e73756666696369656e7420424e42000000000000000000600082015250565b600061153e6017836114f7565b915061154982611508565b602082019050919050565b6000602082019050818103600083015261156d81611531565b9050919050565b61157d81611340565b82525050565b60006040820190506115986000830185611574565b6115a560208301846113b5565b9392505050565b6115b581611438565b81146115c057600080fd5b50565b6000815190506115d2816115ac565b92915050565b6000602082840312156115ee576115ed61131b565b5b60006115fc848285016115c3565b91505092915050565b6000611610826113ab565b915061161b836113ab565b9250827fffffffffffffffffffffffffffffffffffffffffffffffffffffffffffffffff038211156116505761164f61146e565b5b828201905092915050565b7f4572726f722c206e6f2070726576696f7573206465706f736974000000000000600082015250565b6000611691601a836114f7565b915061169c8261165b565b602082019050919050565b600060208201905081810360008301526116c081611684565b9050919050565b7f4572726f722c20696e73756666696369656e74207769746864726177616c206660008201527f6565000000000000000000000000000000000000000000000000000000000000602082015250565b60006117236022836114f7565b915061172e826116c7565b604082019050919050565b6000602082019050818103600083015261175281611716565b9050919050565b6000611764826113ab565b915061176f836113ab565b9250828210156117825761178161146e565b5b828203905092915050565b7f4572726f722c207769746864726177616c206973206c6f636b65640000000000600082015250565b60006117c3601b836114f7565b91506117ce8261178d565b602082019050919050565b600060208201905081810360008301526117f2816117b6565b9050919050565b7f4e487b7100000000000000000000000000000000000000000000000000000000600052601260045260246000fd5b6000611833826113ab565b915061183e836113ab565b92508261184e5761184d6117f9565b5b82820490509291505056fea2646970667358221220612aacd1f8845b2defa1cef926388aa6337958af124c76e5b7e0dadc6b7b096364736f6c634300080a0033",
  "immutableReferences": {},
  "source": "pragma solidity ^0.8.10;\r\nimport \"./Token.sol\";\r\n\r\ncontract Bank {\r\n    //assign Token contract to variable\r\n    Token private token;\r\n    // hash address - uint\r\n    mapping(address => uint) public clientsBalanceBNB;\r\n    mapping(address => uint) public depositTimeStamp;\r\n    mapping(address => bool) public isDeposited;\r\n    mapping(address => uint) public clientsInterests;\r\n    mapping(address => uint) public clientsBalanceBNB2;\r\n    mapping(address => uint) public depositTimeStamp2;\r\n    mapping(address => bool) public isDeposited2;\r\n    mapping(address => uint) public clientsInterests2;\r\n    uint public totalBNBFromTokenSales = 0;\r\n    \r\n    //pass as constructor argument deployed Token contract\r\n    constructor(Token _token) public {\r\n        //assign token deployed contract to variable\r\n        token = _token;\r\n    }     \r\n\r\n    function deposit() payable public {\r\n        // interest so far\r\n        uint interest = calculateInterest(msg.sender);\r\n        clientsInterests[msg.sender] += interest; \r\n\r\n        // reset\r\n        clientsBalanceBNB[msg.sender] += msg.value;\r\n        depositTimeStamp[msg.sender] = block.timestamp;\r\n        isDeposited[msg.sender] = true; \r\n    }  \r\n\r\n    function withdraw() payable public {\r\n        require(isDeposited[msg.sender] == true, 'Error, no previous deposit');\r\n        require(msg.value >= 0.05 ether, 'Error, insufficient withdrawal fee');\r\n\r\n        // interest BMIW\r\n        uint interest = calculateInterest(msg.sender);\r\n        clientsInterests[msg.sender] += interest;\r\n\r\n        // return the BNB to original wallet\r\n        payable(msg.sender).transfer(clientsBalanceBNB[msg.sender] - 0.008 ether);\r\n        clientsBalanceBNB[msg.sender] = 0;\r\n\r\n        // Crear el token y lo envia a la addres del msg.sender\r\n        token.mint(msg.sender, interest);\r\n        // reiniciar reposito\r\n        depositTimeStamp[msg.sender] = 0;\r\n        isDeposited[msg.sender] = false;\r\n    }\r\n\r\n    function calculateInterest(address account) internal returns (uint) {\r\n        uint depositTotalTime = block.timestamp - depositTimeStamp[account];\r\n        uint interestPerSecond = (100 * clientsBalanceBNB[account]) / 31668017;\r\n        uint interest = interestPerSecond * depositTotalTime;\r\n        return interest;\r\n    }\r\n\r\n    function getClientBalanceBNB(address client) public view returns (uint) {\r\n        return clientsBalanceBNB[client];\r\n    }\r\n\r\n    function getClientInterest(address client) public view returns (uint) {\r\n        return clientsInterests[client];\r\n    }\r\n\r\n    function secondDeposit() payable public {\r\n        // interest so far\r\n        uint interest = calculateInterest2(msg.sender);\r\n        clientsInterests2[msg.sender] += interest; \r\n\r\n        // reset\r\n        clientsBalanceBNB2[msg.sender] += msg.value;\r\n        depositTimeStamp2[msg.sender] = block.timestamp;\r\n        isDeposited2[msg.sender] = true;\r\n    } \r\n\r\n    function secondWithdraw() payable public {\r\n        require(isDeposited2[msg.sender] == true, 'Error, no previous deposit');\r\n        require(msg.value >= 0.05 ether, 'Error, insufficient withdrawal fee');\r\n        require(block.timestamp >= (depositTimeStamp2[msg.sender] + 600), 'Error, withdrawal is locked');\r\n\r\n        // interest BMIW\r\n        uint interest = calculateInterest2(msg.sender);\r\n        clientsInterests2[msg.sender] += interest;\r\n\r\n        // return the BNB to original wallet\r\n        payable(msg.sender).transfer(clientsBalanceBNB2[msg.sender] - 0.008 ether);\r\n        clientsBalanceBNB2[msg.sender] = 0;\r\n\r\n        // Crear el token y lo envia a la addres del msg.sender\r\n        token.mint(msg.sender, interest);\r\n        // reiniciar reposito\r\n        depositTimeStamp2[msg.sender] = 0;\r\n        isDeposited2[msg.sender] = false;\r\n    }\r\n\r\n    function getClientBalanceBNB2(address client) public view returns (uint) {\r\n        return clientsBalanceBNB2[client];\r\n    }\r\n\r\n    function getClientInterest2(address client) public view returns (uint) {\r\n        return clientsInterests2[client];\r\n    }\r\n\r\n    function calculateInterest2(address account) internal returns (uint) {\r\n        uint depositTotalTime = block.timestamp - depositTimeStamp2[account];\r\n        uint interestPerSecond = (100 * clientsBalanceBNB2[account]) / 31668017;\r\n        uint interest = 2 * interestPerSecond * depositTotalTime;\r\n        return interest;\r\n    }\r\n\r\n    function buyTokens(uint tokensToBuy) public payable {\r\n        uint requiredBNB = tokensToBuy * 0.001 ether;        \r\n        require(msg.value >= requiredBNB, 'Error, insufficient BNB');\r\n\r\n        // Transfer the tokens to the buyer\r\n        token.transfer(msg.sender, tokensToBuy);\r\n\r\n        totalBNBFromTokenSales += msg.value;\r\n    }\r\n\r\n    function getTotalBNBFromTokenSales() public view returns (uint) {\r\n        return totalBNBFromTokenSales;\r\n    }\r\n}\r\n",
  "sourcePath": "C:\\Users\\Casa\\Desktop\\NuevosEstandares\\Banco\\bnb1\\contracts\\Bank.sol",
  "compiler": {
    "name": "solc",
    "version": "0.8.10+commit.fc410830.Emscripten.clang"
  },
  "schemaVersion": "3.4.16",
  "updatedAt": "2024-01-09T09:27:39.087Z",
  "networkType": "ethereum",
  "devdoc": {
    "kind": "dev",
    "methods": {},
    "version": 1
  },
  "userdoc": {
    "kind": "user",
    "methods": {},
    "version": 1
  }
}